{
  "contractName": "Game",
  "abi": [
    {
      "inputs": [],
      "payable": false,
      "stateMutability": "nonpayable",
      "type": "constructor"
    },
    {
      "anonymous": false,
      "inputs": [
        {
          "indexed": false,
          "name": "",
          "type": "uint256"
        },
        {
          "indexed": false,
          "name": "",
          "type": "uint256"
        }
      ],
      "name": "logBlock",
      "type": "event"
    },
    {
      "anonymous": false,
      "inputs": [
        {
          "indexed": false,
          "name": "",
          "type": "address"
        },
        {
          "indexed": false,
          "name": "",
          "type": "uint256"
        }
      ],
      "name": "logLuckUser",
      "type": "event"
    },
    {
      "anonymous": false,
      "inputs": [
        {
          "indexed": false,
          "name": "",
          "type": "bytes32"
        }
      ],
      "name": "logCommitOrigin",
      "type": "event"
    },
    {
      "constant": false,
      "inputs": [
        {
          "name": "betPhase",
          "type": "uint8"
        },
        {
          "name": "commitPhase",
          "type": "uint8"
        },
        {
          "name": "openPhase",
          "type": "uint8"
        },
        {
          "name": "maxParticipant",
          "type": "uint8"
        },
        {
          "name": "refund",
          "type": "uint256"
        }
      ],
      "name": "startGame",
      "outputs": [],
      "payable": true,
      "stateMutability": "payable",
      "type": "function"
    },
    {
      "constant": false,
      "inputs": [
        {
          "name": "id",
          "type": "uint256"
        },
        {
          "name": "hash",
          "type": "bytes32"
        }
      ],
      "name": "play",
      "outputs": [],
      "payable": true,
      "stateMutability": "payable",
      "type": "function"
    },
    {
      "constant": false,
      "inputs": [
        {
          "name": "id",
          "type": "uint256"
        },
        {
          "name": "origin",
          "type": "bytes32"
        }
      ],
      "name": "commitOrigin",
      "outputs": [],
      "payable": false,
      "stateMutability": "nonpayable",
      "type": "function"
    },
    {
      "constant": false,
      "inputs": [
        {
          "name": "id",
          "type": "uint256"
        }
      ],
      "name": "open",
      "outputs": [],
      "payable": false,
      "stateMutability": "nonpayable",
      "type": "function"
    },
    {
      "constant": true,
      "inputs": [],
      "name": "getId",
      "outputs": [
        {
          "name": "",
          "type": "uint256"
        }
      ],
      "payable": false,
      "stateMutability": "view",
      "type": "function"
    },
    {
      "constant": true,
      "inputs": [
        {
          "name": "id",
          "type": "uint256"
        }
      ],
      "name": "getRandom",
      "outputs": [
        {
          "name": "",
          "type": "bytes32"
        }
      ],
      "payable": false,
      "stateMutability": "view",
      "type": "function"
    },
    {
      "constant": true,
      "inputs": [
        {
          "name": "id",
          "type": "uint256"
        }
      ],
      "name": "getLuckUser",
      "outputs": [
        {
          "name": "",
          "type": "address"
        }
      ],
      "payable": false,
      "stateMutability": "view",
      "type": "function"
    },
    {
      "constant": true,
      "inputs": [
        {
          "name": "id",
          "type": "uint256"
        }
      ],
      "name": "getPrizeAmount",
      "outputs": [
        {
          "name": "",
          "type": "uint256"
        }
      ],
      "payable": false,
      "stateMutability": "view",
      "type": "function"
    },
    {
      "constant": true,
      "inputs": [
        {
          "name": "id",
          "type": "uint256"
        }
      ],
      "name": "getMinAmount",
      "outputs": [
        {
          "name": "",
          "type": "uint256"
        }
      ],
      "payable": false,
      "stateMutability": "view",
      "type": "function"
    }
  ],
  "bytecode": "0x60806040526006600060146101000a81548160ff021916908360ff1602179055506006600060156101000a81548160ff021916908360ff1602179055506006600060166101000a81548160ff021916908360ff16021790555067016345785d8a0000600155600a600255605a6003556001600460006101000a81548160ff021916908315150217905550600060065534801561009a57600080fd5b50336000806101000a81548173ffffffffffffffffffffffffffffffffffffffff021916908373ffffffffffffffffffffffffffffffffffffffff1602179055506113cc806100ea6000396000f300608060405260043610610099576000357c0100000000000000000000000000000000000000000000000000000000900463ffffffff1680632f6dc41c1461009e5780635d1ca631146100df578063690e7c091461010a57806389ccf6e914610137578063a1f1de65146101a4578063a2f86df2146101e5578063bf4bd00214610239578063cd4b691414610267578063d7ef98a2146102b0575b600080fd5b3480156100aa57600080fd5b506100c9600480360381019080803590602001909291905050506102eb565b6040518082815260200191505060405180910390f35b3480156100eb57600080fd5b506100f4610309565b6040518082815260200191505060405180910390f35b34801561011657600080fd5b5061013560048036038101908080359060200190929190505050610313565b005b34801561014357600080fd5b5061016260048036038101908080359060200190929190505050610763565b604051808273ffffffffffffffffffffffffffffffffffffffff1673ffffffffffffffffffffffffffffffffffffffff16815260200191505060405180910390f35b3480156101b057600080fd5b506101cf600480360381019080803590602001909291905050506107b5565b6040518082815260200191505060405180910390f35b610237600480360381019080803560ff169060200190929190803560ff169060200190929190803560ff169060200190929190803560ff169060200190929190803590602001909291905050506107e7565b005b6102656004803603810190808035906020019092919080356000191690602001909291905050506108b5565b005b34801561027357600080fd5b5061029260048036038101908080359060200190929190505050610e48565b60405180826000191660001916815260200191505060405180910390f35b3480156102bc57600080fd5b506102e9600480360381019080803590602001909291908035600019169060200190929190505050610e7a565b005b600081806006541415156102fe57600080fd5b600154915050919050565b6000600654905090565b60008060008060606000806103266112f0565b6000808a6007600082815260200190815260200160002060070160149054906101000a900460ff161561035857600080fd5b6000809054906101000a900473ffffffffffffffffffffffffffffffffffffffff1673ffffffffffffffffffffffffffffffffffffffff163373ffffffffffffffffffffffffffffffffffffffff161415156103b357600080fd5b7fafe72eeca1196cf0f3326a61520979084fac333f789443180041f84eda70e1a743600060159054906101000a900460ff1660ff16600060149054906101000a900460ff1660ff166005540101604051808381526020018281526020019250505060405180910390a1600060159054906101000a900460ff1660ff16600060149054906101000a900460ff1660ff16600554010143101561045357600080fd5b600460009054906101000a900460ff161561046d57600080fd5b60006001029a50600760008d815260200190815260200160002099506104928a611142565b98508960040180548060200260200160405190810160405280929190818152602001828054801561051857602002820191906000526020600020905b8160009054906101000a900473ffffffffffffffffffffffffffffffffffffffff1673ffffffffffffffffffffffffffffffffffffffff16815260200190600101908083116104ce575b50505050509650600095505b865186101561060c57868681518110151561053b57fe5b9060200190602002015194508960030160008673ffffffffffffffffffffffffffffffffffffffff1673ffffffffffffffffffffffffffffffffffffffff16815260200190815260200160002060806040519081016040529081600082015460001916600019168152602001600182015460001916600019168152602001600282015481526020016003820160009054906101000a900460ff16151515158152505093508360200151891892508a60001916836000191611156105ff57829a508497505b8580600101965050610524565b878a60070160006101000a81548173ffffffffffffffffffffffffffffffffffffffff021916908373ffffffffffffffffffffffffffffffffffffffff160217905550888a600601816000191690555060646003548b600501540281151561067057fe5b0491508773ffffffffffffffffffffffffffffffffffffffff166108fc839081150290604051600060405180830381858888f193505050501561073a5760018a60070160146101000a81548160ff0219169083151502179055507f2d4864ea670b421f26c8f4b5764a1706f63e3d944c9de9223d0094855087c895888b60050154604051808373ffffffffffffffffffffffffffffffffffffffff1673ffffffffffffffffffffffffffffffffffffffff1681526020018281526020019250505060405180910390a15b6001600460006101000a81548160ff021916908315150217905550505050505050505050505050565b6000818060065414151561077657600080fd5b6007600084815260200190815260200160002060070160009054906101000a900473ffffffffffffffffffffffffffffffffffffffff16915050919050565b600081806006541415156107c857600080fd5b6007600084815260200190815260200160002060050154915050919050565b6000809054906101000a900473ffffffffffffffffffffffffffffffffffffffff1673ffffffffffffffffffffffffffffffffffffffff163373ffffffffffffffffffffffffffffffffffffffff1614151561084257600080fd5b600460009054906101000a900460ff16151561085d57600080fd5b600160066000828254019250508190555084945083935082925067016345785d8a00006001819055508191506000600460006101000a81548160ff021916908315150217905550436005819055508090505050505050565b60006108bf611321565b6108c76112f0565b6000346001548110156108d957600080fd5b600060149054906101000a900460ff1660ff16600554014311156108fc57600080fd5b868060065414151561090d57600080fd5b873360006007600084815260200190815260200160002060030160008373ffffffffffffffffffffffffffffffffffffffff1673ffffffffffffffffffffffffffffffffffffffff168152602001908152602001600020600001546000191614151561097857600080fd5b339750600760008b815260200190815260200160002061016060405190810160405290816000820160009054906101000a900460ff1660ff1660ff1681526020016000820160019054906101000a900460ff1660ff1660ff1681526020016000820160029054906101000a900460ff1660ff1660ff168152602001600182015481526020016002820154815260200160048201805480602002602001604051908101604052809291908181526020018280548015610a8b57602002820191906000526020600020905b8160009054906101000a900473ffffffffffffffffffffffffffffffffffffffff1673ffffffffffffffffffffffffffffffffffffffff1681526020019060010190808311610a41575b50505050508152602001600582015481526020016006820154600019166000191681526020016007820160009054906101000a900473ffffffffffffffffffffffffffffffffffffffff1673ffffffffffffffffffffffffffffffffffffffff1673ffffffffffffffffffffffffffffffffffffffff1681526020016007820160149054906101000a900460ff1615151515815260200160088201548152505096506080604051908101604052808a6000191681526020016000801916815260200134815260200160001515815250955060008760a00151511415610d2057600760008b81526020019081526020016000209450600060149054906101000a900460ff168560000160006101000a81548160ff021916908360ff160217905550600060159054906101000a900460ff168560000160016101000a81548160ff021916908360ff160217905550600060169054906101000a900460ff168560000160026101000a81548160ff021916908360ff16021790555060015485600101819055506002548560020181905550846004018890806001815401808255809150509060018203906000526020600020016000909192909190916101000a81548173ffffffffffffffffffffffffffffffffffffffff021916908373ffffffffffffffffffffffffffffffffffffffff16021790555050858560030160008a73ffffffffffffffffffffffffffffffffffffffff1673ffffffffffffffffffffffffffffffffffffffff16815260200190815260200160002060008201518160000190600019169055602082015181600101906000191690556040820151816002015560608201518160030160006101000a81548160ff0219169083151502179055509050506003548560080181905550610e3c565b600760008b81526020019081526020016000206004018890806001815401808255809150509060018203906000526020600020016000909192909190916101000a81548173ffffffffffffffffffffffffffffffffffffffff021916908373ffffffffffffffffffffffffffffffffffffffff1602179055505085600760008c815260200190815260200160002060030160008a73ffffffffffffffffffffffffffffffffffffffff1673ffffffffffffffffffffffffffffffffffffffff16815260200190815260200160002060008201518160000190600019169055602082015181600101906000191690556040820151816002015560608201518160030160006101000a81548160ff0219169083151502179055509050505b50505050505050505050565b60008180600654141515610e5b57600080fd5b6007600084815260200190815260200160002060060154915050919050565b60008060159054906101000a900460ff1660ff16600060149054906101000a900460ff1660ff166005540101431115610eb257600080fd5b8280600654141515610ec357600080fd5b338460006007600083815260200190815260200160002060030160008473ffffffffffffffffffffffffffffffffffffffff1673ffffffffffffffffffffffffffffffffffffffff16815260200190815260200160002060000154600019161415610f2d57600080fd5b6007600087815260200190815260200160002060030160003373ffffffffffffffffffffffffffffffffffffffff1673ffffffffffffffffffffffffffffffffffffffff168152602001908152602001600020600001549350836000191685604051808260001916600019168152602001915050604051809103902060001916141561113a577ea91ba000923ba4aa4347a7360d5378d705c7e5b3c6e55620e52a4f2329ec158560405180826000191660001916815260200191505060405180910390a160016007600088815260200190815260200160002060030160003373ffffffffffffffffffffffffffffffffffffffff1673ffffffffffffffffffffffffffffffffffffffff16815260200190815260200160002060030160006101000a81548160ff021916908315150217905550846007600088815260200190815260200160002060030160003373ffffffffffffffffffffffffffffffffffffffff1673ffffffffffffffffffffffffffffffffffffffff16815260200190815260200160002060010181600019169055506007600087815260200190815260200160002060030160003373ffffffffffffffffffffffffffffffffffffffff1673ffffffffffffffffffffffffffffffffffffffff1681526020019081526020016000206002015460076000888152602001908152602001600020600501600082825401925050819055505b505050505050565b6000606060008060006111536112f0565b866004018054806020026020016040519081016040528092919081815260200182805480156111d757602002820191906000526020600020905b8160009054906101000a900473ffffffffffffffffffffffffffffffffffffffff1673ffffffffffffffffffffffffffffffffffffffff168152602001906001019080831161118d575b50505050509450600092505b84518310156112c65784838151811015156111fa57fe5b9060200190602002015191508660030160008373ffffffffffffffffffffffffffffffffffffffff1673ffffffffffffffffffffffffffffffffffffffff16815260200190815260200160002060806040519081016040529081600082015460001916600019168152602001600182015460001916600019168152602001600282015481526020016003820160009054906101000a900460ff1615151515815250509050600115158160600151151514156112b9578060200151841893505b82806001019350506111e3565b83604051808260001916600019168152602001915050604051809103902095505050505050919050565b6080604051908101604052806000801916815260200160008019168152602001600081526020016000151581525090565b61016060405190810160405280600060ff168152602001600060ff168152602001600060ff1681526020016000815260200160008152602001606081526020016000815260200160008019168152602001600073ffffffffffffffffffffffffffffffffffffffff1681526020016000151581526020016000815250905600a165627a7a72305820b18f19aecd2e340571e5514247370fa6d2a8f522d2ed5faba114959f4aab038a0029",
  "source": "pragma solidity ^0.4.3;\ncontract Game{\n    //������\n    address founder;\n    \n    uint8 betPhase=6;\n    \n    uint8 commitPhase=6;\n    \n    uint8 openPhase=6;\n    \n    uint minValue=0.1 ether;\n    \n    uint maxParticipant=10;\n    \n    uint refund=90;\n    \n    bool finished=true;\n    \n    uint startBlock;\n    \n    uint id=0;\n    \n    struct Participant{\n        bytes32 hash;\n        bytes32 origin;\n        uint value;\n        bool committed;\n    }\n    \n   \n\n\n    struct Bet{\n        uint8 betPhase;\n        uint8 commitPhase;\n        uint8 openPhase;\n        uint minValue;\n        uint maxParticipant;\n        mapping(address=>Participant) participants;\n        address[] keys;\n        uint totalValue;\n        bytes32 luckNumber;\n        address lucky;\n        bool prized;\n        uint refund;\n    }\n    \n    mapping(uint=>Bet) games;\n    \n    event logBlock(uint,uint);\n    \n    event logLuckUser(address,uint);\n    \n    event logCommitOrigin(bytes32);\n    \n    modifier checkGameFinish(){\n        if(finished){\n            throw;\n        }\n        _;\n    }\n    \n    modifier checkFounder(){\n        if(msg.sender!=founder){\n            throw;\n        }\n        _;\n    }\n    \n    modifier checkPrized(uint id){\n        if(games[id].prized){\n            throw;\n        }\n        _;\n    }\n    \n    modifier checkFihished(){\n        if(!finished){\n            throw;\n        }\n        _;\n    }\n    \n    modifier checkId(uint i){\n        if(id!=i){\n            throw;\n        }\n        _;\n    }\n    \n    modifier checkValue(uint value){\n        if(value<minValue){\n            throw;\n        }\n        _;\n    }\n    \n    modifier checkBetPhase(){\n        if(block.number>startBlock+betPhase){\n            throw;\n        }\n        _;\n    }\n    \n    modifier checkCommitPhase(){\n        if(block.number>startBlock+betPhase+commitPhase){\n            throw;\n        }\n        _;\n    }\n    \n    modifier checkOpen(){\n        logBlock(block.number,startBlock+betPhase+commitPhase);\n        if(block.number<startBlock+betPhase+commitPhase){\n            throw;\n        }\n        _;\n    }\n    \n    modifier checkUser(address user,uint id){\n        if(games[id].participants[user].hash==\"\"){\n            throw;\n        }\n        _;\n    }\n    \n    modifier checkRegister(uint id,address user){\n        if(games[id].participants[user].hash!=\"\"){\n            throw;\n        }\n        _;\n    }\n    \n    function Game() public{\n        founder=msg.sender;\n    }\n    \n    function startGame(uint8 betPhase,uint8 commitPhase,uint8 openPhase,uint8 maxParticipant,uint refund) payable\n    checkFounder\n    checkFihished\n    {\n        id+=1;\n        betPhase=betPhase;\n        commitPhase=commitPhase;\n        openPhase=openPhase;\n        minValue=0.1 ether;\n        maxParticipant=maxParticipant;\n        finished=false;\n        startBlock=block.number;\n        refund=refund;\n    }\n    \n    function play(uint id,bytes32 hash) public payable\n    checkValue(msg.value)\n    checkBetPhase\n    checkId(id)\n    checkRegister(id,msg.sender)\n    {\n        address user=msg.sender;\n        Bet memory tmp=games[id];\n        Participant memory participant=Participant({hash:hash,origin:\"\",value:msg.value,committed:false});\n        if(tmp.keys.length==0){\n            Bet storage bet=games[id];\n            bet.betPhase=betPhase;\n            bet.commitPhase=commitPhase;\n            bet.openPhase=openPhase;\n            bet.minValue=minValue;\n            bet.maxParticipant=maxParticipant;\n            bet.keys.push(user);\n            bet.participants[user]=participant;\n            bet.refund=refund;\n        }else{\n            games[id].keys.push(user);\n            games[id].participants[user]=participant;\n        }\n    }\n    \n    function commitOrigin(uint id,bytes32 origin)\n    checkCommitPhase\n    checkId(id)\n    checkUser(msg.sender,id)\n    {\n        bytes32 hash=games[id].participants[msg.sender].hash;\n        if(sha3(origin)==hash){\n            logCommitOrigin(origin);\n            games[id].participants[msg.sender].committed=true;\n            games[id].participants[msg.sender].origin=origin;\n            games[id].totalValue+=games[id].participants[msg.sender].value;\n        }\n    }\n    \n    function getLuckNumber(Bet storage bet) internal\n    returns(bytes32)\n    {\n        address[] memory users=bet.keys;\n        bytes32 random;\n        for(uint i=0;i<users.length;i++){\n            address key=users[i];\n            Participant memory p=bet.participants[key];\n            \n            if(p.committed==true){\n                random ^=p.origin;\n            }\n        }\n        return sha3(random);\n    }\n    \n    function open(uint id)\n    checkPrized(id)\n    checkFounder\n    checkOpen\n    checkGameFinish\n    {\n        bytes32 max=0;\n        Bet storage bet=games[id];\n        bytes32 random=getLuckNumber(bet);\n        address tmp;\n        address[] memory users=bet.keys;\n        for(uint i=0;i<users.length;i++){\n            address key=users[i];\n            Participant memory p=bet.participants[key];\n            bytes32 distance=random^p.origin;\n            if(distance>max){\n                max=distance;\n                tmp=key;\n            }\n        }\n        bet.lucky=tmp;\n        bet.luckNumber=random;\n        uint prize=bet.totalValue*refund/100;\n        if(tmp.send(prize)){\n            bet.prized=true;\n            logLuckUser(tmp,bet.totalValue);\n        }\n        finished=true;\n    }\n\n    // public getRandom(uint id) constant{\n        \n    // } \n    function getId() constant returns(uint){\n        return id;\n    }\n    \n    function getRandom(uint id) constant\n    checkId(id)\n    returns(bytes32){\n        return games[id].luckNumber;\n    }\n    \n    function getLuckUser(uint id) constant\n    checkId(id)\n    returns(address){\n        return games[id].lucky;\n    }\n    \n    function getPrizeAmount(uint id) constant\n    checkId(id)\n    returns(uint){\n        return games[id].totalValue;\n    }\n    \n    function getMinAmount(uint id) constant\n    checkId(id)\n    returns(uint)\n    {\n        return minValue;\n    }\n    \n\n}\n",
  "sourcePath": "/home/yangkp/IdeaProjects/truffle-vue-master/contracts/Game.sol",
  "compiler": {
    "name": "solc",
    "version": "0.4.24+commit.e67f0147.Emscripten.clang"
  },
  "schemaVersion": "2.0.1",
  "updatedAt": "2018-07-31T12:49:22.355Z"
}